{
  "_format": "hh-sol-artifact-1",
  "contractName": "Faucet",
  "sourceName": "contracts/Faucet.sol",
  "abi": [
    {
      "inputs": [
        {
          "internalType": "address",
          "name": "tokenAddress",
          "type": "address"
        }
      ],
      "stateMutability": "payable",
      "type": "constructor"
    },
    {
      "anonymous": false,
      "inputs": [
        {
          "indexed": true,
          "internalType": "address",
          "name": "from",
          "type": "address"
        },
        {
          "indexed": true,
          "internalType": "uint256",
          "name": "amount",
          "type": "uint256"
        }
      ],
      "name": "Deposit",
      "type": "event"
    },
    {
      "anonymous": false,
      "inputs": [
        {
          "indexed": true,
          "internalType": "address",
          "name": "to",
          "type": "address"
        },
        {
          "indexed": true,
          "internalType": "uint256",
          "name": "amount",
          "type": "uint256"
        }
      ],
      "name": "Withdrawal",
      "type": "event"
    },
    {
      "inputs": [],
      "name": "getBalance",
      "outputs": [
        {
          "internalType": "uint256",
          "name": "",
          "type": "uint256"
        }
      ],
      "stateMutability": "view",
      "type": "function"
    },
    {
      "inputs": [],
      "name": "lockTime",
      "outputs": [
        {
          "internalType": "uint256",
          "name": "",
          "type": "uint256"
        }
      ],
      "stateMutability": "view",
      "type": "function"
    },
    {
      "inputs": [],
      "name": "requestTokens",
      "outputs": [],
      "stateMutability": "nonpayable",
      "type": "function"
    },
    {
      "inputs": [
        {
          "internalType": "uint256",
          "name": "amount",
          "type": "uint256"
        }
      ],
      "name": "setLockTime",
      "outputs": [],
      "stateMutability": "nonpayable",
      "type": "function"
    },
    {
      "inputs": [
        {
          "internalType": "uint256",
          "name": "amount",
          "type": "uint256"
        }
      ],
      "name": "setWithdrawalAmount",
      "outputs": [],
      "stateMutability": "nonpayable",
      "type": "function"
    },
    {
      "inputs": [],
      "name": "token",
      "outputs": [
        {
          "internalType": "contract IERC20",
          "name": "",
          "type": "address"
        }
      ],
      "stateMutability": "view",
      "type": "function"
    },
    {
      "inputs": [],
      "name": "withdraw",
      "outputs": [],
      "stateMutability": "nonpayable",
      "type": "function"
    },
    {
      "inputs": [],
      "name": "withdrawalAmount",
      "outputs": [
        {
          "internalType": "uint256",
          "name": "",
          "type": "uint256"
        }
      ],
      "stateMutability": "view",
      "type": "function"
    },
    {
      "stateMutability": "payable",
      "type": "receive"
    }
  ],
  "bytecode": "0x60806040526802b5e3af16b1880000600255603c60035560405161108038038061108083398181016040528101906100379190610121565b80600160006101000a81548173ffffffffffffffffffffffffffffffffffffffff021916908373ffffffffffffffffffffffffffffffffffffffff160217905550336000806101000a81548173ffffffffffffffffffffffffffffffffffffffff021916908373ffffffffffffffffffffffffffffffffffffffff1602179055505061014e565b600080fd5b600073ffffffffffffffffffffffffffffffffffffffff82169050919050565b60006100ee826100c3565b9050919050565b6100fe816100e3565b811461010957600080fd5b50565b60008151905061011b816100f5565b92915050565b600060208284031215610137576101366100be565b5b60006101458482850161010c565b91505092915050565b610f238061015d6000396000f3fe60806040526004361061007f5760003560e01c80633ccfd60b1161004e5780633ccfd60b14610165578063ae04d45d1461017c578063e6e268f4146101a5578063fc0c546a146101d0576100ca565b80630d668087146100cf57806312065fe0146100fa578063168ee33a14610125578063359cf2b71461014e576100ca565b366100ca57343373ffffffffffffffffffffffffffffffffffffffff167fe1fffcc4923d04b559f4d29a8bfc6cda04eb5b0d3c460751c2402c5c5cc9109c60405160405180910390a3005b600080fd5b3480156100db57600080fd5b506100e46101fb565b6040516100f191906109aa565b60405180910390f35b34801561010657600080fd5b5061010f610201565b60405161011c91906109aa565b60405180910390f35b34801561013157600080fd5b5061014c600480360381019061014791906109f6565b6102a4565b005b34801561015a57600080fd5b5061016361034f565b005b34801561017157600080fd5b5061017a610616565b005b34801561018857600080fd5b506101a3600480360381019061019e91906109f6565b6108c1565b005b3480156101b157600080fd5b506101ba610965565b6040516101c791906109aa565b60405180910390f35b3480156101dc57600080fd5b506101e561096b565b6040516101f29190610aa2565b60405180910390f35b60035481565b6000600160009054906101000a900473ffffffffffffffffffffffffffffffffffffffff1673ffffffffffffffffffffffffffffffffffffffff166370a08231306040518263ffffffff1660e01b815260040161025e9190610ade565b602060405180830381865afa15801561027b573d6000803e3d6000fd5b505050506040513d601f19601f8201168201806040525081019061029f9190610b0e565b905090565b60008054906101000a900473ffffffffffffffffffffffffffffffffffffffff1673ffffffffffffffffffffffffffffffffffffffff163373ffffffffffffffffffffffffffffffffffffffff1614610332576040517f08c379a000000000000000000000000000000000000000000000000000000000815260040161032990610bbe565b60405180910390fd5b670de0b6b3a7640000816103469190610c0d565b60028190555050565b600073ffffffffffffffffffffffffffffffffffffffff163373ffffffffffffffffffffffffffffffffffffffff16036103be576040517f08c379a00000000000000000000000000000000000000000000000000000000081526004016103b590610cc1565b60405180910390fd5b600254600160009054906101000a900473ffffffffffffffffffffffffffffffffffffffff1673ffffffffffffffffffffffffffffffffffffffff166370a08231306040518263ffffffff1660e01b815260040161041c9190610ade565b602060405180830381865afa158015610439573d6000803e3d6000fd5b505050506040513d601f19601f8201168201806040525081019061045d9190610b0e565b101561049e576040517f08c379a000000000000000000000000000000000000000000000000000000000815260040161049590610d53565b60405180910390fd5b600460003373ffffffffffffffffffffffffffffffffffffffff1673ffffffffffffffffffffffffffffffffffffffff16815260200190815260200160002054421015610520576040517f08c379a000000000000000000000000000000000000000000000000000000000815260040161051790610e0b565b60405180910390fd5b6003544261052e9190610e2b565b600460003373ffffffffffffffffffffffffffffffffffffffff1673ffffffffffffffffffffffffffffffffffffffff16815260200190815260200160002081905550600160009054906101000a900473ffffffffffffffffffffffffffffffffffffffff1673ffffffffffffffffffffffffffffffffffffffff1663a9059cbb336002546040518363ffffffff1660e01b81526004016105d0929190610e5f565b6020604051808303816000875af11580156105ef573d6000803e3d6000fd5b505050506040513d601f19601f820116820180604052508101906106139190610ec0565b50565b60008054906101000a900473ffffffffffffffffffffffffffffffffffffffff1673ffffffffffffffffffffffffffffffffffffffff163373ffffffffffffffffffffffffffffffffffffffff16146106a4576040517f08c379a000000000000000000000000000000000000000000000000000000000815260040161069b90610bbe565b60405180910390fd5b600160009054906101000a900473ffffffffffffffffffffffffffffffffffffffff1673ffffffffffffffffffffffffffffffffffffffff166370a08231306040518263ffffffff1660e01b81526004016106ff9190610ade565b602060405180830381865afa15801561071c573d6000803e3d6000fd5b505050506040513d601f19601f820116820180604052508101906107409190610b0e565b3373ffffffffffffffffffffffffffffffffffffffff167f7fcf532c15f0a6db0bd6d0e038bea71d30d808c7d98cb3bf7268a95bf5081b6560405160405180910390a3600160009054906101000a900473ffffffffffffffffffffffffffffffffffffffff1673ffffffffffffffffffffffffffffffffffffffff1663a9059cbb33600160009054906101000a900473ffffffffffffffffffffffffffffffffffffffff1673ffffffffffffffffffffffffffffffffffffffff166370a08231306040518263ffffffff1660e01b815260040161081d9190610ade565b602060405180830381865afa15801561083a573d6000803e3d6000fd5b505050506040513d601f19601f8201168201806040525081019061085e9190610b0e565b6040518363ffffffff1660e01b815260040161087b929190610e5f565b6020604051808303816000875af115801561089a573d6000803e3d6000fd5b505050506040513d601f19601f820116820180604052508101906108be9190610ec0565b50565b60008054906101000a900473ffffffffffffffffffffffffffffffffffffffff1673ffffffffffffffffffffffffffffffffffffffff163373ffffffffffffffffffffffffffffffffffffffff161461094f576040517f08c379a000000000000000000000000000000000000000000000000000000000815260040161094690610bbe565b60405180910390fd5b603c8161095c9190610c0d565b60038190555050565b60025481565b600160009054906101000a900473ffffffffffffffffffffffffffffffffffffffff1681565b6000819050919050565b6109a481610991565b82525050565b60006020820190506109bf600083018461099b565b92915050565b600080fd5b6109d381610991565b81146109de57600080fd5b50565b6000813590506109f0816109ca565b92915050565b600060208284031215610a0c57610a0b6109c5565b5b6000610a1a848285016109e1565b91505092915050565b600073ffffffffffffffffffffffffffffffffffffffff82169050919050565b6000819050919050565b6000610a68610a63610a5e84610a23565b610a43565b610a23565b9050919050565b6000610a7a82610a4d565b9050919050565b6000610a8c82610a6f565b9050919050565b610a9c81610a81565b82525050565b6000602082019050610ab76000830184610a93565b92915050565b6000610ac882610a23565b9050919050565b610ad881610abd565b82525050565b6000602082019050610af36000830184610acf565b92915050565b600081519050610b08816109ca565b92915050565b600060208284031215610b2457610b236109c5565b5b6000610b3284828501610af9565b91505092915050565b600082825260208201905092915050565b7f4f6e6c792074686520636f6e7472616374206f776e65722063616e2063616c6c60008201527f20746869732066756e6374696f6e000000000000000000000000000000000000602082015250565b6000610ba8602e83610b3b565b9150610bb382610b4c565b604082019050919050565b60006020820190508181036000830152610bd781610b9b565b9050919050565b7f4e487b7100000000000000000000000000000000000000000000000000000000600052601160045260246000fd5b6000610c1882610991565b9150610c2383610991565b9250828202610c3181610991565b91508282048414831517610c4857610c47610bde565b5b5092915050565b7f52657175657374206d757374206e6f74206f726967696e6174652066726f6d2060008201527f61207a65726f206163636f756e74000000000000000000000000000000000000602082015250565b6000610cab602e83610b3b565b9150610cb682610c4f565b604082019050919050565b60006020820190508181036000830152610cda81610c9e565b9050919050565b7f496e73756666696369656e742062616c616e636520696e20666175636574206660008201527f6f72207769746864726177616c20726571756573740000000000000000000000602082015250565b6000610d3d603583610b3b565b9150610d4882610ce1565b604082019050919050565b60006020820190508181036000830152610d6c81610d30565b9050919050565b7f496e73756666696369656e742074696d6520656c61707365642073696e63652060008201527f6c617374207769746864726177616c202d2074727920616761696e206c61746560208201527f722e000000000000000000000000000000000000000000000000000000000000604082015250565b6000610df5604283610b3b565b9150610e0082610d73565b606082019050919050565b60006020820190508181036000830152610e2481610de8565b9050919050565b6000610e3682610991565b9150610e4183610991565b9250828201905080821115610e5957610e58610bde565b5b92915050565b6000604082019050610e746000830185610acf565b610e81602083018461099b565b9392505050565b60008115159050919050565b610e9d81610e88565b8114610ea857600080fd5b50565b600081519050610eba81610e94565b92915050565b600060208284031215610ed657610ed56109c5565b5b6000610ee484828501610eab565b9150509291505056fea2646970667358221220630fbc9f263ce74409d386353074e3a34695a0cc7e4faac3467456ea448502b264736f6c63430008110033",
  "linkReferences": {},
  "deployedLinkReferences": {}
}